:040000000200313297
:01000B0032C2
:0100130032BA
:01001B0032B2
:0100230032AA
:03002B000202AB23
:0E008A00D200750800750B00750C0002002EE8
:03002E00020105C7
:2000980075FFDE75FFAD2275840075C80475C90275CA9F75CBAE2275840F75A4FF75A5FF12
:2000B80075A6FF75A7FF759CFF759DFF759EFF759FFF75E3402275840F758C677EB87F0BC3
:2000D800EE24FFFCEF34FFFD8C068D07EC4D70F0E58C30E7FB7597012275A8A022120098E2
:2000F80012009F1200AF1200CE1200F1221200F575840012046A12036DC20912050AD209A8
:2001180012050A7415C0E0E4C0E07499C0E07410C0E0120817E58124FCF5817E007F00C03E
:2001380007C006C006C00774A4C0E07410C0E0120817E58124FCF5819000FA120204D006CC
:20015800D0070EBE00010FC3EE9415EF6480948040CD74A9C0E07410C0E0120817158115C9
:200178008174B1C0E07410C0E01208171581158174BBC0E07410C0E01208171581158174DC
:20019800C5C0E07410C0E01208171581158174CFC0E07410C0E01208171581158174D9C0F0
:2001B800E07410C0E01208171581158174E3C0E07410C0E01208171581158174EDC0E074D9
:2001D80010C0E01208171581158174F7C0E07410C0E0120817158115817401C0E07411C014
:2001F800E01208171581158190000022AE82AF834389015389FDEE4F6016C28CC28D758C9F
:200218009E758A58D28C308DFD1EBEFF011F80E622E58275F004A424DCFE740F35F0FF8E8F
:20023800828F83E493F5C88E828F83A3E493F5D88E828F83A3A3E493F5E88E828F83A3A3B1
:20025800A3E493F5F822AF828F057E00ED24D0FBEE34FFFCC3EB942BEC648094805022ED71
:2002780024D0FDEE34FFFEC3E49D74808EF063F08095F0500C8F06EE24D0F5821202298041
:2002980011BF200875822C120229800675822B12022922C0E0C082C083C0D0C2CF30000E63
:2002B800D291E50990108C93F580C290800CD290E50A90108C93F580C291B200D0D0D08346
:2002D800D082D0E032AF827E0075140A8E158F828E83C007C006120DC0AC82D006D0078CF8
:2002F8000975140A7515008F828E83120D8AAE828E0A22AF82A20292B000D2B1EF03035428
:200318003FFE74FC5E4402FEA202E433FDFCEC4EF5B000C2B1300126900001C007C005C03C
:2003380004120204D004D005D007D2B18F06EE2E25E0FE74FC5E44024CF5B000C2B1BF0497
:2003580000500BED7008900002120204800690000112020422C2B1900010120204C201C21A
:200378000275823012030B900005120204C201C20275823012030B900001120204C201C273
:200398000275823012030BC201C20275822012030BD201C20275822812030BD201C202755C
:2003B800820812030BD201C20275820112030BD201C20275820612030BD201C20275820C7E
:2003D80012030B22D2A3A20492A0A204B392A1A20392A200000000D2A4000000000000009B
:2003F8000075840F85C88275840000000000C2A400000000000000000000000022AF82C29A
:2004180003A2069204C0071203DCE582D00720E7EEC2A3A20692A0A206B392A1A20592A2F0
:2004380075840F8FC800000000758400D2A4000000000000000000000000C2A475840F75F3
:20045800C8FF75840000000000000000000000000022C2A4D2A0D2A175840F75C8FF75841A
:2004780000D2A5C203C2041203DCE58220E4F4C203D2041203DCE58220E4F4C205C2067523
:20049800823F120415C205D20675823F120415C205C206758240120415C205D20675824091
:2004B800120415C205C2067582B8120415C205D2067582B8120415C205C2067582C01204BB
:2004D80015C205D2067582C012041522AF8274404F547FF582C205A207920612041522AFCA
:2004F8008274B84F54BFF582C205A2089206120415227F00A20992088F82C0071204F7A2BC
:200518000992077582001204E4D0077E00D205A2099206758200C007C006120415D006D06C
:20053800070EBE400040E60FBF080040C7A20992087582001204F7A20992077582001204F3
:20055800E422AF82BF0900502B8F061ED2088E82C0061204F7D2077582001204E4D006C237
:20057800088E821204F7C2077582001204E4750B0002065B74F8250B40047E0080027E0142
:200598007410B50B30E50C04F50C750B01D208850C82C0071204F7D2077582001204E4C20B
:2005B80008850C821204F7C2077582001204E4D0077E008002050B7D008F037C00EB24E0E0
:2005D800F514EC34FFF515900005C007C006C005120CDBAB82AC83D005D006EB24FCFBECF8
:2005F800340DFCED2BF582E43CF583E493FCEE24FFE433FBD205EB24FF92068C82C006C0D8
:2006180005C003120415D003D005D006D0070DBD050040A5D205EB24FF9206758200C0038F
:20063800120415D003D205EB24FF9206758200C003120415D003D205EB24FF9206758200FB
:2006580012041522AE82E583FF30E70302079FC3740D9E74808FF063F08095F050030207D3
:200678009FEE240A83F582EE241283F583E4739FDFF81129415971899FA3A9AFC70706067F
:20069800070707070707070606060675080002079F75080102079F750802D201C2027582A1
:2006B80080C007C00612030BD006D00702079F750803D201C2027582C0C007C00612030B25
:2006D800D006D00702079F750804750C00C207758201C007C0061204E4D006D00702079F0E
:2006F800750805750C01C207758202C007C0061204E4D006D00702079F750806750C02C278
:2007180007758203C007C0061204E4D006D0078076750807750C03C207758204C007C0063D
:200738001204E4D006D007805E750808750C04C207758205C007C0061204E4D006D0078099
:2007580046750809750C05C207758206C007C0061204E4D006D007802E75080A750C06C2B7
:2007780007758207C007C0061204E4D006D007801675080B750C07C207758208C007C0062D
:200798001204E4D006D007E50824FC4060E50875F003A49007AF730207BB0207D00207DFB6
:2007B8000207F28E82C007C00612025E9001F4120204D006D00780428E82C007C00612025A
:2007D800DDD006D00780338E82D201D202C007C00612030BD006D00780208E82D201D2025C
:1F07F800C007C00612030BD006D007800D8E82C007C00612055AD006D0078E828F8322FC
:200DFC00000000000000005F00000007000700147F147F14242A7F2A1223130864623649A4
:200E1C005522500005030000001C2241000041221C00082A1C2A0808083E0808005030008B
:200E3C00000808080808003030000020100804023E5149453E00427F4000426151494621D0
:200E5C0041454B311814127F1027454545393C4A49493001710905033649494936064949CE
:200E7C00291E00363600000056360000000814224114141414144122140800020151090652
:200E9C00324979413E7E1111117E7F494949363E414141227F4141221C7F494949417F097F
:200EBC000901013E414151327F0808087F00417F41002040413F017F081422417F40404093
:200EDC00407F0204027F7F0408107F3E4141413E7F090909063E4151215E7F091929464612
:200EFC004949493101017F01013F4040403F1F2040201F7F2018207F631408146303047880
:200F1C000403615149454300007F4141020408102041417F0000040201020440404040409E
:200F3C00000102040020545454787F484444383844444420384444487F3854545418087EF6
:200F5C00090102081454543C7F0804047800447D40002040443D00007F10284400417F4085
:200F7C00007C041804787C0804047838444444387C14141408081414187C7C0804040848A1
:200F9C0054545420043F4440203C4040207C1C2040201C3C4030403C44281028440C505066
:200FBC00503C4464544C44000836410000007F0000004136080008082A1C08081C2A0808C4
:200FDC00FF8181FF8482FF80F191898F818989FF0F0808FF8F8989F9FF8989F9010101FF80
:200FFC00FF9191FF9F9191FF0000C3000080E3001028448214141414824428100701B10FBB
:20101C00FF81999FFF1111FFFF9191EEFF818181FF81817EFF919191FF111111FF81B1F1C6
:20103C00FF1010FF81FFFF81E18181FFFF3C4281FF808080FF0606FFFF8160FFFF8181FF2E
:20105C00FF0909FF3F61A1BFFF1929CF8F8989F903FFFF03FF8080FF7F80807FFF6060FFFC
:20107C00E31C1CE307FCFC07C1B18D83FFFFFFFF7E306D79335B5F707F7B00FF4F0A204C23
:20109C0055434153202575000B202575000C204C55434153000D2053414E54414E410001B1
:2010BC00204C494E484120310002204C494E484120320003204C494E484120330004204C05
:2010DC00494E484120340005204C494E484120350006204C494E484120360007204C494EA8
:0F10FC00484120370008204C494E484120380019
:20081700C013858113E51324FDF8868318868218E493A3B42577C20AC20BC20CC20DC20E13
:20083700C20F790D7700C210E493A324C64017240A50157005B50D02D20FD20EFAE775F0D3
:200857000AA42AF780E2240A2430B46C04D20A80D7B46804D20B80D0B473030208AFB4642F
:2008770006120B8902090BB47506120B8902092BB4630518E6188017B478030208EAB4668E
:2008970003020A3FB42E06790E7700809B6006120C7B020827020C95C083C08286F0188686
:2008B7008318868218300E19C20FC082C083120D6E6007A3150DE50D70F4120C66D083D003
:2008D70082120D6E6006A3120C7B80F5D082D083020827120902200B0C120902300A061242
:2008F7000902120902120C8D020827E6120C6BE618020C6CED30E71CD20DE9F42401F920DC
:200917000B12EAF43400FA300A0AEBF43400FBECF43400FC200B10300A08EB7024EC7021BC
:20093700C20AEA701CD20BE97017201014300E09E50D6005150D120C667430120C7B020842
:2009570027C082C083120BA3300E60790A300A1DEB54F0703619EB540F703019EA54F07009
:200977002A19EA540F702419EF54F0701E7905200B0BEF540F701419EE54F0700E7903EEA5
:20099700540F700719ED54F0700119E50DA20D994019F50DC003C002C007C006C005120C08
:2009B70066D005D006D007D002D003300D19C003C002C007C006C005742D120C7BD005D087
:2009D70006D007D002D003200B40300A2CC005C006C0078A82EBF583120C6BE583120C6C71
:2009F700E582120C6BE582120C6CD0E0F582120C6BE582D083D08280058D828E83EF120C91
:200A17006CE583120C6BE58380038D82EE120C6CE582120C6BE582120C6C120C8DD083D041
:200A37008230100122020827300E0EE50DD3950EF50D5028750D008023E6547FFA188603E2
:200A570008AE82AF839012D77D07E4932BA3E4933A5003A3DDF48D0E8E828F83C000120BC1
:200A77006BC082C083EFB47E02801940112482FDC3EA33FAEB33FBEC33FCDDF48006F42442
:200A97007F120C9875F01BE4F8FFFEFD90126BE933F9EA33FAEB33FBEC33FC5017E4932D3C
:200AB700D4FD7401933ED4FE7402933FD4FF74039338D4F8A3A3A3A3D5F0D4E47C50FBFA43
:200AD700F9E50E232354FC8883120C98ED29D4F512EE3AD4F511EF3BD4F510E5833CD4F559
:200AF7000F92D5D083D082D000120B6BC000C3749E9F5005D00002083FC082120C98D08280
:200B170030D50FE92401F9E43AFAE43BFBE43CFC40E2D21012092B200E0CE50E6008120B59
:200B37005B7003D50EF4E50E6015742E120C7B7800D20C08E8120B5B120C6CE8B50EF4D09F
:200B57000002082714C31392D5240FF9E720D501C4540F22E618F9E618FC33E933920DFFCC
:200B77006003430480E618FBE618FA7900C20BD20A22E6F9FD18200B12AA01E6F918300AF2
:200B97000AAC02AB01E6FA18E6F91822E975F06484FE740AC5F084C445F0FD300B0122EAA0
:200BB700540FF990110B932DD4FDE94410933ED4FEEAC4540FF990112B932DD4FDE9441001
:200BD700933ED4FEE94420933400D4FF200A0122EB540FF990115B932DD4FDE94410933E45
:200BF700D4FEE94420933FD4FFE43400FAEBC4540FF990118B932DD4FDE94410933ED4FE60
:200C1700E94420933FD4FFE94430933AD4FAEC540FF99011CB7B00120C39ECC4540FF990B1
:200C3700121B932DD4FDE94410933ED4FEE94420933FD4FFE94430933AD4FAE94440933BDA
:200C5700D4FB227420300F027430120C7B150DE50D70F022C4540F7003300C19D20C249063
:200C7700D43440D4C083C082C000F58212065CD000D082D08322200CFC7430020C7BD01342
:010C9700223A
:20110B000056126824803692480460167228844000020507101215172023252830333538AC
:20112B00009692888480767268646056524844400040812263044586276809509132731421
:20114B000000000101020202030304040405050600367208448016528824609632680440FE
:20116B00005510662176328742985308641975300006131926323945525865727885919843
:20118B000076522804805632088460361288644000857157432814008671574329140086C8
:2011AB00000409141924293438434853586368720001020304050607080910111213141522
:2011CB0000163248648096122844607692082440007244168860320577492193653810821A
:2011EB00007755331088664421997754321088650016335067830017345067840118345148
:20120B00000000000000010101010101020202020056126824803692480460167228844059
:20122B00005409631872278136914500540963180043873074176104489135792266095378
:20124B00006836057342107947158452218958260002050810131618212426293234374077
:20126B00000000500000002500005012000025060050120300255601501278002506390042
:20128B00125319005676090028880400144402000722010004610000523000002615000096
:2012AB0063070000810300009101000095000000480000002400000012000000060000008A
:1A12CB000300000001000000010000007DC5DDC334C2E0BE38BD86BBE4B9BB
:06006000E478FFF6D8FD74
:200C98006040F82582500274FFF582E824F8501ECCCBCAF9E4CC24F85014CBCAF9E4CB2464
:200CB800F8500BCAF9E4CA24F8500379002224086010F8C3EC13FCEB13FBEA13FAE913F917
:030CD800D8F1222E
:20003E007900E94400601B7A009012E5780175A000E493F2A308B8000205A0D9F4DAF27571
:02005E00A0FF01
:1D0CDB00E5828514F0A4C582C0F08515F0A4D0F025F0C5838514F0A42583F58322B7
:200CF800E514451560467A01E51425E0F514E515334012F515E5829514E583951540030A69
:200D180080E6C3E51513F515E51413F514C3E5829514F5F0E58395154005F58385F082C325
:0D0D3800E51513F515E51413F514DAE122A5
:200066007800E84400600A790175A000E4F309D8FC7800E84400600C7900900001E4F0A398
:04008600D8FCD9FACF
:200D45007A10E4FBFCE58225E0F582E58333F583EB33FBEC33FCEB9514F5F0EC95154006AA
:090D6500FCABF0438201DADD224F
:0D003100758122120DF8E582600302002E99
:1C0D6E0020F71430F6148883A88220F507E6A88375830022E280F7E49322E02294
:200D8A00C2D5E58330E70DD2D5E4C39582F582E49583F583E51530E70BE4C39514F514E47D
:160DAA009515F515120CF830D50BE4C39582F582E49583F583228E
:200DC000C2D5E58330E70DD2D5E4C39582F582E49583F583E51530E70DB2D5E4C39514F5B6
:180DE00014E49515F515120D4530D50BE4C39582F582E49583F5832210
:040DF80075820022DE
:00000001FF
