:040000000200313297
:01000B0032C2
:0100130032BA
:03001B000206CD0D
:0300230002025185
:03002B000204B418
:0F008A00750900E4F50AF50BF50CF50D02002ED3
:03002E0002016369
:2000990075FFDE75FFAD22758400758805758991758E1875840075C80475C90875CADC75FD
:2000B900CB0B75CCDC75CD0B75840175C80475C90875CA5D75CBFF2275840075D84075DA94
:2000D900422275840075985075910A22758400759A4075F801759D7C2275840075E88022BD
:2000F90075840075D4802275840075D1032275840F75A4B575E10E75E21075E3402275844B
:200119000F758C677EB87F0BEE24FFFCEF34FFFD8C068D07EC4D70F0E58C30E7FB75970114
:200139002275A8B875B8E8221200991200A01200D11200DB1200E51200F21200F912010032
:2001590012010712011712013A2212014175840075CD0B75CCDC75CB0B75CADCD2CA75B0F5
:20017900FF7443C0E07410C0E01207F1158115817401B5080280117402B50802800F7403B6
:20019900B5080302021C80E812066080E375150075820112063D120ED8AC82AD83AEF0FF59
:2001B900C004C005C006C00790851F75F01B743A120C72AC82AD83AEF0FFE58124FCF58127
:2001D9007490C0E074A0C0E07438C0E0743EC0E08C828D838EF0EF120F4DAC82AD83AEF01B
:2001F900FFE58124FCF581C004C005C006C0077458C0E07410C0E01207F1E58124FAF58141
:2002190002018912056502018922AE82AF834389015389FDEE4F6016C28CC28D758C9E75A3
:200239008A58D28C308DFD1EBEFF011F80E62285829910990280FB22C021C0E0C0F0C082CD
:20025900C083C007C006C005C004C003C002C001C000C0D075D000209803020470AF99BF19
:2002790031030203ECBF3203020418BF3303020444BF6103020342BF6403020334BF6D02F8
:20029900800FBF700302034EBF720302038602046E7481C0E07410C0E01207F1158115810F
:2002B900748AC0E07410C0E01207F11581158174A4C0E07410C0E01207F11581158174BEE9
:2002D900C0E07410C0E01207F11581158174EFC0E07410C0E01207F115811581740AC0E090
:2002F9007411C0E01207F1158115817429C0E07411C0E01207F1158115817453C0E0741106
:20031900C0E01207F1158115817466C0E07411C0E01207F11581158102046E740125FC50BF
:200339000302046E05FC02046EE5FC700302046E15FC02046EB2877468C0E07411C0E0127F
:2003590007F115811581308712746AC0E07411C0E01207F11581158102046E747DC0E07445
:2003790011C0E01207F11581158102046E120762AC82AD83AEF0FFC004C005C006C00790ED
:20039900000075F0207441120C72AC82AD83AEF0FFE58124FCF581C004C005C006C00790DD
:2003B900000075F0F07441120F4DAC82AD83AEF0FFE58124FCF581C004C005C006C007742B
:2003D90093C0E07411C0E01207F1E58124FAF58102046EC2B1900005120223D2B1900005DD
:2003F900120223C2B1900096120223D2B1900005120223C2B1900005120223D2B18056C234
:20041900B2900005120223D2B2900005120223C2B2900096120223D2B2900005120223C212
:20043900B2900005120223D2B2802AC2B3900005120223D2B3900005120223C2B3900096CA
:20045900120223D2B3900005120223C2B3900005120223D2B3C298D0D0D000D001D002D0F8
:2004790003D004D005D006D007D083D082D0F0D0E0D0213274FFB5B0028006E5B0F4FF806A
:200499000575821580147E00EF20E00CBE08005007EFC313FF0E80F08E8222C021C0E0C053
:2004B900F0C082C083C007C006C005C004C003C002C001C000C0D075D000C2CF74FFB5B054
:2004D90003750900E509700612048D8582087415B508028007E5097003750901D0D0D0004D
:2004F900D001D002D003D004D005D006D007D083D082D0F0D0E0D02132AE82AF838E05C228
:20051900A3759B0330F9FD8F9B30F9FD8D9B30F9FD759B0030F9FDC2FF10FF0280FBD2A350
:20053900859B8222AE82AF838E05C2A3759B0230F9FD8F9B30F9FD8D9B30F9FD85159B3049
:20055900F9FDC2FF10FF0280FBD2A3227E007F007C007D007515647516008C828D83C00754
:20057900C006C005C004120DE9E5828583F0D004D005D006D00745F07025C007C006C0053A
:20059900C004C004C00574ACC0E07411C0E01207F1E58124FCF581D004D005D006D007753F
:2005B900157B8C828D83C007C006C005C00412053DD004D0058C828D83C005C00412051291
:2005D900AB82D004D005D006D007BB7B0280067E017F00800D0CBC00010D74E02D4003029A
:2005F900056DC007C0067466C0E07411C0E01207F115811581D006D007EE4F6017C006C027
:200619000774B2C0E07411C0E01207F1E58124FCF581800F74C2C0E07411C0E01207F11520
:2006390081158122AF8274F855BC4515F5BC8FBBD2EC0020ECFDAFBF7E00ACBE7D00EC4E91
:20065900F582ED4FF5832275150075820012063D120ED8AC82AD83AEF0FFC004C005C0061C
:20067900C00790851F75F01B743A120C72AC82AD83AEF0FFE58124FCF581C004C005C00662
:20069900C00790000075F0C87442120C72AC82AD83AEF0FFE58124FCF581C004C005C00631
:2006B900C00774DDC0E07411C0E01207F1E58124FAF58122C021C0E0C0F0C082C083C007A1
:2006D900C006C005C004C003C002C001C000C0D075D000C28F7477C0E074CCC0E0742BC0BC
:2006F900E0743BC0E0850A82850B83850CF0E50D120E3685820A85830B85F00CF50DE581B8
:2007190024FCF581E4C0E0C0E07480C0E0743FC0E0850A82850B83850CF0E50D120DB9AF01
:2007390082E58124FCF581EF6002D28BD0D0D000D001D002D003D004D005D006D007D083E5
:20075900D082D0F0D0E0D021322086FDE4F50AF50BF50CF50DC28BD28E308BFDC28EC28F0C
:20077900AF8D7E00AC8B7D00EC2EF582ED3FF5838E8B8E8D120ED8AC82AD83AEF0FF742002
:20079900C0E074BCC0E074BEC0E0744BC0E08C828D838EF0EF120F4DAC82AD83AEF0FFE5C6
:2007B9008124FCF581C004C005C006C007850A82850B83850CF0E50D120E3685820A8583ED
:1807D9000B85F00CF50DE58124FCF581850A82850B83850CF0E50D22C5
:20104300496E696369616E646F206669726D776172652E0A0054656E73616F2061706C691A
:2010630063616461206120706C6163612070656C746965723A2025332E3166560A000A202C
:201083004D454E553A0A00613A2041756D656E74612052504D20646F206D6F746F722E0AC3
:2010A30000643A2044696D696E75692052504D20646F206D6F746F722E0A00703A204C6996
:2010C30067612F6465736C69676120666F6E746520646520656E657267696120706C61635D
:2010E300612070656C746965722E0A00723A204D65646520726F746163616F20646F206D6F
:201103006F746F722E0A00313A204D6564652074656D706572617475726120646F206D6F11
:20112300746F722E0A00323A204D6564652074656E73616F2061706C69636164612061207E
:20114300706C6163612070656C746965722E0A00333A2054657374612052414D20535049A4
:201163002E0A000A002000466F6E746520313256206C69676164612E0A00466F6E7465205F
:20118300313256206465736C69676164612E0A00526F746163616F20646F206D6F746F7290
:2011A3003A2025332E31660A002530357520004572726F20656E642E20253035750A004600
:2011C300696D20646F2074657374652E2052414D20535049206F6B210A0054656D70657232
:2011E300617475726120646120706C6163612070656C746965723A2025322E316620430AD1
:0112030000EA
:2007F100C014858114E51424FDF8868318868218E493A3B42577C200C201C202C203C20469
:20081100C205790E7700C206E493A324C64017240A50157005B50E02D205D204FAE775F01F
:200831000AA42AF780E2240A2430B46C04D20080D7B46804D20180D0B47303020889B4648F
:2008510006120B630208E5B47506120B63020905B4630518E6188017B478030208C4B46673
:2008710003020A19B42E06790F7700809B6006120C55020801020C6FC083C08286F0188643
:200891008318868218300419C205C082C0831210106007A3150EE50E70F4120C40D083D0BC
:2008B100821210106006A3120C5580F5D082D0830208011208DC20010C1208DC3000061271
:2008D10008DC1208DC120C67020801E6120C45E618020C46ED30E71CD203E9F42401F920F2
:2008F1000112EAF43400FA30000AEBF43400FBECF43400FC200110300008EB7024EC70210B
:20091100C200EA701CD201E97017200614300409E50E6005150E120C407430120C550208DA
:2009310001C082C083120B7D300460790A30001DEB54F0703619EB540F703019EA54F0708F
:200951002A19EA540F702419EF54F0701E790520010BEF540F701419EE54F0700E7903EED5
:20097100540F700719ED54F0700119E50EA203994019F50EC003C002C007C006C005120C36
:2009910040D005D006D007D002D003300319C003C002C007C006C005742D120C55D005D003
:2009B10006D007D002D00320014030002CC005C006C0078A82EBF583120C45E583120C46F7
:2009D100E582120C45E582120C46D0E0F582120C45E582D083D08280058D828E83EF120C29
:2009F10046E583120C45E58380038D82EE120C46E582120C45E582120C46120C67D083D04C
:200A1100823006012202080130040EE50ED3950FF50E5028750E008023E6547FFA1886033E
:200A310008AE82AF839013D07D07E4932BA3E4933A5003A3DDF48D0F8E828F83C000120BEC
:200A510045C082C083EFB47E02801940112482FDC3EA33FAEB33FBEC33FCDDF48006F4248E
:200A71007F120D4375F01BE4F8FFFEFD901364E933F9EA33FAEB33FBEC33FC5017E4932DBC
:200A9100D4FD7401933ED4FE7402933FD4FF74039338D4F8A3A3A3A3D5F0D4E47C50FBFA69
:200AB100F9E50F232354FC8883120D43ED29D4F513EE3AD4F512EF3BD4F511E5833CD4F5CF
:200AD1001092D5D083D082D000120B45C000C3749E9F5005D000020819C082120D43D08245
:200AF10030D50FE92401F9E43AFAE43BFBE43CFC40E2D20612090520040CE50F6008120BB9
:200B1100357003D50FF4E50F6015742E120C557800D20208E8120B35120C46E8B50FF4D064
:200B31000002080114C31392D52410F9E720D501C4540F22E618F9E618FC33E9339203FF21
:200B51006003430480E618FBE618FA7900C201D20022E6F9FD18200112AA01E6F918300040
:200B71000AAC02AB01E6FA18E6F91822E975F06484FE740AC5F084C445F0FD30010122EAD0
:200B9100540FF9901204932DD4FDE94410933ED4FEEAC4540FF9901224932DD4FDE9441033
:200BB100933ED4FEE94420933400D4FF20000122EB540FF9901254932DD4FDE94410933E7B
:200BD100D4FEE94420933FD4FFE43400FAEBC4540FF9901284932DD4FDE94410933ED4FE8C
:200BF100E94420933FD4FFE94430933AD4FAEC540FF99012C47B00120C13ECC4540FF99004
:200C11001314932DD4FDE94410933ED4FEE94420933FD4FFE94430933AD4FAE94440933B06
:200C3100D4FB2274203005027430120C55150EE50E70F022C4540F7003300219D2022490CB
:200C5100D43440D4C083C082C000F582120248D000D082D083222002FC7430020C55D014AF
:010C71002260
:201204000056126824803692480460167228844000020507101215172023252830333538B2
:20122400009692888480767268646056524844400040812263044586276809509132731427
:20124400000000010102020203030404040505060036720844801652882460963268044004
:20126400005510662176328742985308641975300006131926323945525865727885919849
:201284000076522804805632088460361288644000857157432814008671574329140086CE
:2012A400000409141924293438434853586368720001020304050607080910111213141528
:2012C400001632486480961228446076920824400072441688603205774921936538108220
:2012E40000775533108866442199775432108865001633506783001734506784011834514E
:2013040000000000000001010101010102020202005612682480369248046016722884405F
:2013240000540963187227813691450054096318004387307417610448913579226609537E
:2013440000683605734210794715845221895826000205081013161821242629323437407D
:20136400000000500000002500005012000025060050120300255601501278002506390048
:2013840012531900567609002888040014440200072201000461000052300000261500009C
:2013A400630700008103000091010000950000004800000024000000120000000600000090
:1A13C4000300000001000000010000007DC5DDC334C2E0BE38BD86BBE4B9C1
:200C7200120D15BC0003020F05EF60FA30D502B2D1E583B4FF03020F1BE582B4FF03020F0E
:200C92001B258340072482400B020F052483145003020F1BF582EA8DF0A4A8F0EA8EF0A4D1
:200CB20028F8E435F0F9EB8DF0A428E935F0F9E433CA8FF0A429F9EA35F0FAEBF88EF0A491
:200CD20029F9EA35F0FAE433FBEC8DF0A429F9EA35F0FAE43BFBE88FF0A42AFAEB35F0FB39
:200CF200E433CCFD8EF0A42AFAEB35F0FBE43CFCED8FF0A42BFBEC35F0FC20E703120D86A3
:030D1200020EE4EA
:200D1500AA82AB83A2F73392D1F5826002D2F7ACF0E58124F9F8E6FD08E6FE0886F008E641
:0E0D3500A2F73392D5F5836002D2F7AFF02219
:06006000E478FFF6D8FD74
:200D43006040F82582500274FFF582E824F8501ECCCBCAF9E4CC24F85014CBCAF9E4CB24B8
:200D6300F8500BCAF9E4CA24F8500379002224086010F8C3EC13FCEB13FBEA13FAE913F96B
:030D8300D8F12282
:200D86007804EC7011E58224F8500AF582E4C9CACBFCD8EF22EC7820058220E713D582016C
:130DA60022C3E933F9EA33FAEB33FBEC33FCD8EA1582227A
:20003E007900E94400601B7A009013DE780175A000E493F2A308B8000205A0D9F4DAF27577
:02005E00A0FF01
:200DB900FFA8811818120EADD2D133E6400730E70B7582012220E70675820022C2D1120EDD
:100DD9008FE97003F5822230D101B3E433F5822221
:200DE900E515451660467A01E51525E0F515E516334012F516E5829515E583951640030A6F
:200E090080E6C3E51613F516E51513F515C3E5829515F5F0E58395164005F58385F082C32D
:0D0E2900E51613F516E51513F515DAE122AF
:200066007800E84400600A790175A000E4F309D8FC7800E84400600C7900900001E4F0A398
:04008600D8FCD9FACF
:200E3600120D157900E583B58202800D5003120F33E583C39582120D43E5D0C465D020E1C7
:200E560017EA2DFAEB3EFBEC3FFC50097401120D43EC4480FC020EE4C3EA9DFAEB9EFBEC85
:190E76009FFC500FC3E499F9E49AFAE49BFBE49CFCB2D1120D86020EE4A6
:200E8F007901AA82E68F82B5821318E6B5F00E18E6B5830918E68A82B58202790022B4805A
:200EAF000FE5F0700AE5837006E58270027F00EFB6801518B6001018B6000B18B6000608C2
:090ECF0008087600220808082238
:0C0ED800E4AC83AB82FAF9748E02103592
:200EE400B98003EA13B34010EA2401FAE43BFBE43CFC50047C800582BC000EBB000BBA0052
:200F040008E4F5F0F583F58222A2D1E582138CF092F78B838A8222E4F583F58275F080F411
:0F0F2400A2D11322E4F583F58275F0C0747F2209
:1A0F3300E582C583F582A2D133A2D592D11392D5ECCFFCEBCEFBEACDFA2246
:200F4D00120D1530D502B2D1BF0009BC0003020F28020F1BBC0003020F05E583B4FF0BE5FA
:200F6D0082B4FF03020F28020F05E582B4FF03020F1BC395835007247F400B020F052480BA
:200F8D00145003020F1BF582C3ED9AEE9BEF9C40111582C3EA33F9EB33FAEC33FBE433FCD6
:200FAD008005E4CCCBCAF9C08275F019C3E99DEA9EEB9FEC9400D5F002802D400EE99DF985
:200FCD00EA9EFAEB9FFBEC9400FCC3B3E833F8E58233F582E58333F583C3E933F9EA33FAE5
:200FED00EB33FBEC33FC80C4B3E4F938FAE43582FBE43583FCD082500405827C80120D86AE
:03100D00020EFCD4
:0D00310075812112103FE582600302002E50
:1C10100020F71430F6148883A88220F507E6A88375830022E280F7E49322E022EF
:13102C00FCABF0AA83A982749EC2D1F582120D86020EE40D
:04103F007582002294
:00000001FF
