:040000000200313297
:01000B0032C2
:0100130032BA
:03001B00020738A1
:0300230002025383
:03002B00020516B5
:0F008A00750900E4F50AF50BF50CF50D02002ED3
:03002E0002015973
:2000990075FFDE75FFAD22758400758805758991758E1875840075C80475C90875CADC75FD
:2000B900CB0B75CCDC75CD0B75840175C80475C90875CA5D75CBFF2275840075D84075DA94
:2000D900422275840075985075910A22758400759A4075F801759D7C2275840075E88022BD
:2000F90075840075D1032275840F75A4B575E10E75E21075E3402275840F758C677EB87F03
:200119000BEE24FFFCEF34FFFD8C068D07EC4D70F0E58C30E7FB7597012275A8B875B8E834
:20013900221200991200A01200D11200DB1200E51200F21200F912010012011012013322B3
:2001590012013A75840075CD0B75CCDC75CB0B75CADCD2CA75B0FF74ACC0E07410C0E012BA
:20017900085A158115811204677401B5080280117402B50802800F7403B5080302021E80F9
:20019900E81206C280E375150075820112069F75150075820112069F120F41AC82AD83AE41
:2001B900F0FFC004C005C006C00790851F75F01B743A120CDBAC82AD83AEF0FFE58124FC45
:2001D900F5817490C0E074A0C0E07438C0E0743EC0E08C828D838EF0EF120FB6AC82AD83DA
:2001F900AEF0FFE58124FCF581C004C005C006C00774C1C0E07410C0E012085AE58124FA46
:20021900F5810201821205C702018222AE82AF834389015389FDEE4F6016C28CC28D758CEC
:200239009E758A58D28C308DFD1EBEFF011F80E62285829910990280FB22C021C0E0C0F0FC
:20025900C082C083C007C006C005C004C003C002C001C000C0D075D00020980302044AAF55
:2002790099BF31030203C6BF32030203F2BF330302041EBF6102803EBF64028018BF6D023F
:20029900800DBF70028041BF72028074020448120467020448744625FC4009740525FCF5D3
:2002B900FC02044874EAC0E07410C0E012085A15811581020448E5FC24FA4003020448E556
:2002D900FC24FBF5FC020448B28774FFC0E07410C0E012085A158115813087127401C0E0BD
:2002F9007411C0E012085A158115810204487414C0E07411C0E012085A1581158102044897
:200319001207CBAC82AD83AEF0FFC004C005C006C00790000075F0207441120CDBAC82AD31
:2003390083AEF0FFE58124FCF581C004C005C006C00790000075F0F07441120FB6AC82AD26
:2003590083AEF0FFE58124FCF581C007C006C005C004E4C0E0C0E074C0C0E07440C0E08C7A
:20037900828D838EF0EF120E22E58124FCF581D004D005D006D007E58224FF9200401274EF
:200399002AC0E07411C0E012085A15811581020448C004C005C006C0077445C0E07411C0B3
:2003B900E012085AE58124FAF581020448C2B1900005120225D2B1900005120225C2B190F3
:2003D9000096120225D2B1900005120225C2B1900005120225D2B18056C2B290000512022D
:2003F90025D2B2900005120225C2B2900096120225D2B2900005120225C2B290000512022B
:2004190025D2B2802AC2B3900005120225D2B3900005120225C2B3900096120225D2B390F1
:200439000005120225C2B3900005120225D2B3C298D0D0D000D001D002D003D004D005D0E4
:2004590006D007D083D082D0F0D0E0D021327462C0E07411C0E012085A15811581746BC094
:20047900E07411C0E012085A158115817485C0E07411C0E012085A15811581749FC0E07439
:2004990011C0E012085A1581158174D0C0E07411C0E012085A1581158174EBC0E07411C005
:2004B900E012085A15811581740AC0E07412C0E012085A158115817434C0E07412C0E0123F
:2004D900085A158115817447C0E07412C0E012085A158115812274FFB5B0028006E5B0F449
:2004F900FF800575821580147E00EF20E00CBE08005007EFC313FF0E80F08E8222C021C014
:20051900E0C0F0C082C083C007C006C005C004C003C002C001C000C0D075D000C2CF74FFB8
:20053900B5B003750900E50970061204EF8582087415B508028007E5097003750901D0D0F5
:20055900D000D001D002D003D004D005D006D007D083D082D0F0D0E0D02132AE82AF838EBE
:2005790005C2A3759B0330F9FD8F9B30F9FD8D9B30F9FD759B0030F9FDC2FF10FF0280FB9E
:20059900D2A3859B8222AE82AF838E05C2A3759B0230F9FD8F9B30F9FD8D9B30F9FD85153F
:2005B9009B30F9FDC2FF10FF0280FBD2A3227E007F007C007D007515647516008C828D83F0
:2005D900C007C006C005C004120E52E5828583F0D004D005D006D00745F07025C007C0066E
:2005F900C005C004C004C0057449C0E07412C0E012085AE58124FCF581D004D005D006D08E
:200619000775157B8C828D83C007C006C005C00412059FD004D0058C828D83C005C0041269
:200639000574AB82D004D005D006D007BB7B0280067E017F00800D0CBC00010D74E02D40C5
:20065900030205CFC007C0067447C0E07412C0E012085A15811581D006D007EE4F6017C0D9
:2006790006C007744FC0E07412C0E012085AE58124FCF581800F745FC0E07412C0E0120859
:200699005A1581158122AF8274F855BC4515F5BC8FBBD2EC0020ECFDAFBF7E00ACBE7D00FC
:2006B900EC4EF582ED4FF5832275150075820012069F75150075820012069F120F41AC829A
:2006D900AD83AEF0FFC004C005C006C00790851F75F01B743A120CDBAC82AD83AEF0FFE5E3
:2006F9008124FCF581C004C005C006C00790000075F0C87442120CDBAC82AD83AEF0FFE568
:200719008124FCF581C004C005C006C007747AC0E07412C0E012085AE58124FAF58122C08F
:2007390021C0E0C0F0C082C083C007C006C005C004C003C002C001C000C0D075D000C28F68
:200759007477C0E074CCC0E0742BC0E0743BC0E0850A82850B83850CF0E50D120E9F85822A
:200779000A85830B85F00CF50DE58124FCF581E4C0E0C0E07440C0E0C0E0850A82850B8388
:20079900850CF0E50D120E22AF82E58124FCF581EF6002D28BD0D0D000D001D002D003D0FA
:2007B90004D005D006D007D083D082D0F0D0E0D021322086FDE4F50AF50BF50CF50DC28B8C
:2007D900D28E308BFDC28EC28FAF8D7E00AC8B7D00EC2EF582ED3FF5838E8B8E8D120F410E
:2007F900AC82AD83AEF0FF7420C0E074BCC0E074BEC0E0744BC0E08C828D838EF0EF120F04
:20081900B6AC82AD83AEF0FFE58124FCF581C004C005C006C007850A82850B83850CF0E572
:200839000D120E9F85820A85830B85F00CF50DE58124FCF581850A82850B83850CF0E50D99
:01085900227C
:2010AC00496E696369616E646F206669726D776172652E0A0054656E73616F2061706C69B1
:2010CC0063616461206120706C6163612070656C746965723A2025332E3166560A0052504B
:2010EC004D206DED6E696D6F206174696E6769646F0A002000466F6E746520313256206C70
:20110C0069676164612E0A00466F6E746520313256206465736C69676164612E0A00526F09
:20112C00746163616F20646F206D6F746F72203C3D20362072706D0A00526F746163616F26
:20114C0020646F206D6F746F723A2025332E31662072706D0A000A204D454E553A0A00614B
:20116C003A2041756D656E74612052504D20646F206D6F746F722E0A00643A2044696D6972
:20118C006E75692052504D20646F206D6F746F722E0A00703A204C6967612F6465736C69E5
:2011AC00676120666F6E746520646520656E657267696120706C6163612070656C74696577
:2011CC00722E0A00723A204D65646520726F746163616F20646F206D6F746F722E0A00315C
:2011EC003A204D6564652074656D706572617475726120646F206D6F746F722E0A00323A5C
:20120C00204D6564652074656E73616F2061706C6963616461206120706C61636120706597
:20122C006C746965722E0A00333A2054657374612052414D205350492E0A000A00253035E4
:20124C007520004572726F20656E642E20253035750A0046696D20646F2074657374652E25
:20126C002052414D20535049206F6B210A0054656D706572617475726120646F206D6F7444
:0D128C006F723A2025322E316620430A0091
:20085A00C014858114E51424FDF8868318868218E493A3B42577C201C202C203C204C205FA
:20087A00C206790E7700C207E493A324C64017240A50157005B50E02D206D205FAE775F0B2
:20089A000AA42AF780E2240A2430B46C04D20180D7B46804D20280D0B473030208F2B464BB
:2008BA0006120BCC02094EB47506120BCC02096EB4630518E6188017B4780302092DB466FB
:2008DA0003020A82B42E06790F7700809B6006120CBE02086A020CD8C083C08286F0188636
:2008FA008318868218300519C206C082C0831210796007A3150EE50E70F4120CA9D083D07F
:20091A00821210796006A3120CBE80F5D082D08302086A12094520020C12094530010612F6
:20093A000945120945120CD002086AE6120CAEE618020CAFED30E71CD204E9F42401F9200F
:20095A000212EAF43400FA30010AEBF43400FBECF43400FC200210300108EB7024EC70219D
:20097A00C201EA701CD202E97017200714300509E50E6005150E120CA97430120CBE02089B
:20099A006AC082C083120BE6300560790A30011DEB54F0703619EB540F703019EA54F07052
:2009BA002A19EA540F702419EF54F0701E790520020BEF540F701419EE54F0700E7903EE6B
:2009DA00540F700719ED54F0700119E50EA204994019F50EC003C002C007C006C005120CCC
:2009FA00A9D005D006D007D002D003300419C003C002C007C006C005742D120CBED005D0C7
:200A1A0006D007D002D00320024030012CC005C006C0078A82EBF583120CAEE583120CAFB9
:200A3A00E582120CAEE582120CAFD0E0F582120CAEE582D083D08280058D828E83EF120C84
:200A5A00AFE583120CAEE58380038D82EE120CAFE582120CAEE582120CAF120CD0D083D06C
:200A7A00823007012202086A30050EE50ED3950FF50E5028750E008023E6547FFA1886036A
:200A9A0008AE82AF839014657D07E4932BA3E4933A5003A3DDF48D0F8E828F83C000120BED
:200ABA00AEC082C083EFB47E02801940112482FDC3EA33FAEB33FBEC33FCDDF48006F424BC
:200ADA007F120DAC75F01BE4F8FFFEFD9013F9E933F9EA33FAEB33FBEC33FC5017E4932D55
:200AFA00D4FD7401933ED4FE7402933FD4FF74039338D4F8A3A3A3A3D5F0D4E47C50FBFA00
:200B1A00F9E50F232354FC8883120DACED29D4F513EE3AD4F512EF3BD4F511E5833CD4F5FC
:200B3A001092D5D083D082D000120BAEC000C3749E9F5005D000020882C082120DACD082A0
:200B5A0030D50FE92401F9E43AFAE43BFBE43CFC40E2D20712096E20050CE50F6008120BE4
:200B7A009E7003D50FF4E50F6015742E120CBE7800D20308E8120B9E120CAFE8B50FF4D056
:200B9A000002086A14C31392D52410F9E720D501C4540F22E618F9E618FC33E9339204FF4E
:200BBA006003430480E618FBE618FA7900C202D20122E6F9FD18200212AA01E6F9183001D3
:200BDA000AAC02AB01E6FA18E6F91822E975F06484FE740AC5F084C445F0FD30020122EA66
:200BFA00540FF9901299932DD4FDE94410933ED4FEEAC4540FF99012B9932DD4FDE94410A0
:200C1A00933ED4FEE94420933400D4FF20010122EB540FF99012E9932DD4FDE94410933E7B
:200C3A00D4FEE94420933FD4FFE43400FAEBC4540FF9901319932DD4FDE94410933ED4FE8C
:200C5A00E94420933FD4FFE94430933AD4FAEC540FF99013597B00120C7CECC4540FF9909B
:200C7A0013A9932DD4FDE94410933ED4FEE94420933FD4FFE94430933AD4FAE94440933B08
:200C9A00D4FB2274203006027430120CBE150EE50E70F022C4540F7003300319D2032490F6
:200CBA00D43440D4C083C082C000F58212024AD000D082D083222003FC7430020CBED014DA
:010CDA0022F7
:2012990000561268248036924804601672288440000205071012151720232528303335381D
:2012B900009692888480767268646056524844400040812263044586276809509132731492
:2012D90000000001010202020303040404050506003672084480165288246096326804406F
:2012F9000055106621763287429853086419753000061319263239455258657278859198B4
:20131900007652280480563208846036128864400085715743281400867157432914008638
:20133900000409141924293438434853586368720001020304050607080910111213141592
:2013590000163248648096122844607692082440007244168860320577492193653810828A
:201379000077553310886644219977543210886500163350678300173450678401183451B8
:201399000000000000000101010101010202020200561268248036924804601672288440CA
:2013B9000054096318722781369145005409631800438730741761044891357922660953E9
:2013D9000068360573421079471584522189582600020508101316182124262932343740E8
:2013F9000000005000000025000050120000250600501203002556015012780025063900B3
:20141900125319005676090028880400144402000722010004610000523000002615000006
:201439006307000081030000910100009500000048000000240000001200000006000000FA
:1A1459000300000001000000010000007DC5DDC334C2E0BE38BD86BBE4B92B
:200CDB00120D7EBC0003020F6EEF60FA30D502B2D1E583B4FF03020F84E582B4FF03020F6A
:200CFB0084258340072482400B020F6E2483145003020F84F582EA8DF0A4A8F0EA8EF0A42D
:200D1B0028F8E435F0F9EB8DF0A428E935F0F9E433CA8FF0A429F9EA35F0FAEBF88EF0A427
:200D3B0029F9EA35F0FAE433FBEC8DF0A429F9EA35F0FAE43BFBE88FF0A42AFAEB35F0FBCF
:200D5B00E433CCFD8EF0A42AFAEB35F0FBE43CFCED8FF0A42BFBEC35F0FC20E703120DEFD0
:030D7B00020F4D17
:200D7E00AA82AB83A2F73392D1F5826002D2F7ACF0E58124F9F8E6FD08E6FE0886F008E6D8
:0E0D9E00A2F73392D5F5836002D2F7AFF022B0
:06006000E478FFF6D8FD74
:200DAC006040F82582500274FFF582E824F8501ECCCBCAF9E4CC24F85014CBCAF9E4CB244F
:200DCC00F8500BCAF9E4CA24F8500379002224086010F8C3EC13FCEB13FBEA13FAE913F902
:030DEC00D8F12219
:200DEF007804EC7011E58224F8500AF582E4C9CACBFCD8EF22EC7820058220E713D5820103
:130E0F0022C3E933F9EA33FAEB33FBEC33FCD8EA15822210
:20003E007900E94400601B7A00901473780175A000E493F2A308B8000205A0D9F4DAF275E1
:02005E00A0FF01
:200E2200FFA8811818120F16D2D133E6400730E70B7582012220E70675820022C2D1120E09
:100E4200F8E97003F5822230D101B3E433F582224E
:200E5200E515451660467A01E51525E0F515E516334012F516E5829515E583951640030A05
:200E720080E6C3E51613F516E51513F515C3E5829515F5F0E58395164005F58385F082C3C4
:0D0E9200E51613F516E51513F515DAE12246
:200066007800E84400600A790175A000E4F309D8FC7800E84400600C7900900001E4F0A398
:04008600D8FCD9FACF
:200E9F00120D7E7900E583B58202800D5003120F9CE583C39582120DACE5D0C465D020E123
:200EBF0017EA2DFAEB3EFBEC3FFC50097401120DACEC4480FC020F4DC3EA9DFAEB9EFBEC49
:190EDF009FFC500FC3E499F9E49AFAE49BFBE49CFCB2D1120DEF020F4D6A
:200EF8007901AA82E68F82B5821318E6B5F00E18E6B5830918E68A82B58202790022B480F1
:200F18000FE5F0700AE5837006E58270027F00EFB6801518B6001018B6000B18B600060858
:090F3800080876002208080822CE
:0C0F4100E4AC83AB82FAF9748E02109EBF
:200F4D00B98003EA13B34010EA2401FAE43BFBE43CFC50047C800582BC000EBB000BBA00E8
:200F6D0008E4F5F0F583F58222A2D1E582138CF092F78B838A8222E4F583F58275F080F4A8
:0F0F8D00A2D11322E4F583F58275F0C0747F22A0
:1A0F9C00E582C583F582A2D133A2D592D11392D5ECCFFCEBCEFBEACDFA22DD
:200FB600120D7E30D502B2D1BF0009BC0003020F91020F84BC0003020F6EE583B4FF0BE5ED
:200FD60082B4FF03020F91020F6EE582B4FF03020F84C395835007247F400B020F6E2480AD
:200FF600145003020F84F582C3ED9AEE9BEF9C40111582C3EA33F9EB33FAEC33FBE433FC04
:201016008005E4CCCBCAF9C08275F019C3E99DEA9EEB9FEC9400D5F002802D400EE99DF91B
:20103600EA9EFAEB9FFBEC9400FCC3B3E833F8E58233F582E58333F583C3E933F9EA33FA7B
:20105600EB33FBEC33FC80C4B3E4F938FAE43582FBE43583FCD082500405827C80120DEFDB
:03107600020F6501
:0D0031007581211210A8E582600302002EE7
:1C10790020F71430F6148883A88220F507E6A88375830022E280F7E49322E02286
:13109500FCABF0AA83A982749EC2D1F582120DEF020F4DD1
:0410A800758200222B
:00000001FF
