:040000000200313297
:01000B0032C2
:0100130032BA
:03001B0002074495
:0300230002025383
:03002B00020522A9
:0F008A00750900E4F50AF50BF50CF50D02002ED3
:03002E0002015973
:2000990075FFDE75FFAD22758400758805758991758E1875840075C80475C90875CADC75FD
:2000B900CB0B75CCDC75CD0B75840175C80475C90875CA5D75CBFF2275840075D84075DA94
:2000D900422275840075985075910A22758400759A4075F801759D7C2275840075E88022BD
:2000F90075840075D1032275840F75A4B575E10E75E21075E3402275840F758C677EB87F03
:200119000BEE24FFFCEF34FFFD8C068D07EC4D70F0E58C30E7FB7597012275A8B875B8E834
:20013900221200991200A01200D11200DB1200E51200F21200F912010012011012013322B3
:2001590012013A75840075CD0B75CCDC75CB0B75CADCD2CA75B0FF74D7C0E07416C0E01289
:200179000866158115811204737401B5080280117402B50802800F7403B5080302021E80E1
:20019900E81206CE80E37516007582011206AB7516007582011206AB120F4DAC82AD83AE0F
:2001B900F0FFC004C005C006C00790851F75F01B743A120CE7AC82AD83AEF0FFE58124FC39
:2001D900F5817490C0E074A0C0E07438C0E0743EC0E08C828D838EF0EF1215E1AC82AD83A9
:2001F900AEF0FFE58124FCF581C004C005C006C00774ECC0E07416C0E0120866E58124FA09
:20021900F5810201821205D302018222AE82AF834389015389FDEE4F6016C28CC28D758CE0
:200239009E758A58D28C308DFD1EBEFF011F80E62285829910990280FB22C023C0E0C0F0FA
:20025900C082C083C007C006C005C004C003C002C001C000C0D075D000209803020456AF49
:2002790099BF31030203D2BF32030203FEBF330302042ABF6102804ABF64028019BF6D020E
:20029900800EBF7002804DBF7203020325020454120473020454744125FC4006740525FC68
:2002B900F5FCAEFC7F00C006C0077415C0E07417C0E07480C0E0120FCCE58124FBF58102AC
:2002D9000454E5FC24FA4003020454E5FC24FBF5FC020454B2877419C0E07417C0E012081B
:2002F9006615811581308712741BC0E07417C0E012086615811581020454742EC0E074175D
:20031900C0E0120866158115810204541207D7AC82AD83AEF0FFC004C005C006C00790008D
:200339000075F0207441120CE7AC82AD83AEF0FFE58124FCF581C004C005C006C0079000C8
:200359000075F0F074411215E1AC82AD83AEF0FFE58124FCF581C007C006C005C004E4C0C1
:20037900E0C0E074A0C0E07440C0E08C828D838EF0EF120E2EE58124FCF581D004D005D08E
:2003990006D007E58224FF920040127444C0E07417C0E012086615811581020454C004C0EC
:2003B90005C006C007745BC0E07417C0E0120866E58124FAF581020454C2B1900005120208
:2003D90025D2B1900005120225C2B1900096120225D2B1900005120225C2B190000512024F
:2003F90025D2B18056C2B2900005120225D2B2900005120225C2B2900096120225D2B290EB
:200419000005120225C2B2900005120225D2B2802AC2B3900005120225D2B39000051202A4
:2004390025C2B3900096120225D2B3900005120225C2B3900005120225D2B3C298D0D0D0C5
:2004590000D001D002D003D004D005D006D007D083D082D0F0D0E0D023327474C0E074176A
:20047900C0E012086615811581747DC0E07417C0E0120866158115817497C0E07417C0E0D9
:200499001208661581158174B1C0E07417C0E01208661581158174E2C0E07417C0E01208C0
:2004B900661581158174FDC0E07417C0E012086615811581741CC0E07418C0E012086615B8
:2004D9008115817446C0E07418C0E0120866158115817459C0E07418C0E0120866158115F6
:2004F900812274FFB5B0028006E5B0F4FF800575821580147E00EF20E00CBE08005007EFAE
:20051900C313FF0E80F08E8222C023C0E0C0F0C082C083C007C006C005C004C003C002C02A
:2005390001C000C0D075D000C2CF74FFB5B003750900E50970061204FB8582087415B50858
:20055900028007E5097003750901D0D0D000D001D002D003D004D005D006D007D083D08238
:20057900D0F0D0E0D02332AE82AF838E05C2A3759B0330F9FD8F9B30F9FD8D9B30F9FD7527
:200599009B0030F9FDC2FF10FF0280FBD2A3859B8222AE82AF838E05C2A3759B0230F9FD69
:2005B9008F9B30F9FD8D9B30F9FD85169B30F9FDC2FF10FF0280FBD2A3227E007F007C00CB
:2005D9007D007516647517008C828D83C007C006C005C004120E5EE5828583F0D004D00550
:2005F900D006D00745F07025C007C006C005C004C004C005745BC0E07418C0E0120866E5CC
:200619008124FCF581D004D005D006D00775167B8C828D83C007C006C005C0041205ABD088
:2006390004D0058C828D83C005C004120580AB82D004D005D006D007BB7B0280067E017F4B
:2006590000800D0CBC00010D74E02D40030205DBC007C0067459C0E07418C0E012086615BD
:20067900811581D006D007EE4F6017C006C0077461C0E07418C0E0120866E58124FCF5813F
:20069900800F7471C0E07418C0E01208661581158122AF8274F855BC4516F5BC8FBBD2EC71
:2006B9000020ECFDAFBF7E00ACBE7D00EC4EF582ED4FF583227516007582001206AB7516EE
:2006D900007582001206AB120F4DAC82AD83AEF0FFC004C005C006C00790851F75F01B74A0
:2006F9003A120CE7AC82AD83AEF0FFE58124FCF581C004C005C006C00790000075F0C87464
:2007190042120CE7AC82AD83AEF0FFE58124FCF581C004C005C006C007748CC0E07418C080
:20073900E0120866E58124FAF58122C023C0E0C0F0C082C083C007C006C005C004C003C0D3
:2007590002C001C000C0D075D000C28F7477C0E074CCC0E0742BC0E0743BC0E0850A828548
:200779000B83850CF0E50D120EAB85820A85830B85F00CF50DE58124FCF581E4C0E0C0E0CD
:20079900C0E07440C0E0850A82850B83850CF0E50D120E2EAF82E58124FCF581EF6002D217
:2007B9008BD0D0D000D001D002D003D004D005D006D007D083D082D0F0D0E0D02332208679
:2007D900FDE4F50AF50BF50CF50DC28BD28E308BFDC28EC28FAF8D7E00AC8B7D00EC2EF59A
:2007F90082ED3FF5838E8B8E8D120F4DAC82AD83AEF0FF7420C0E074BCC0E074BEC0E074D3
:200819004BC0E08C828D838EF0EF1215E1AC82AD83AEF0FFE58124FCF581C004C005C006FB
:20083900C007850A82850B83850CF0E50D120EAB85820A85830B85F00CF50DE58124FCF554
:0D08590081850A82850B83850CF0E50D2258
:2016D700496E696369616E646F206669726D776172652E0A0054656E73616F2061706C6980
:2016F70063616461206120706C6163612070656C746965723A2025332E3166560A00256433
:2017170020002000466F6E746520313256206C69676164612E0A00466F6E7465203132560E
:20173700206465736C69676164612E0A00526F746163616F20646F206D6F746F72203C3DF6
:2017570020350A00526F746163616F20646F206D6F746F723A2025332E31660A000A204D0E
:20177700454E553A0A00613A2041756D656E74612052504D20646F206D6F746F722E0A0015
:20179700643A2044696D696E75692052504D20646F206D6F746F722E0A00703A204C696734
:2017B700612F6465736C69676120666F6E746520646520656E657267696120706C61636168
:2017D7002070656C746965722E0A00723A204D65646520726F746163616F20646F206D6F66
:2017F700746F722E0A00313A204D6564652074656D706572617475726120646F206D6F7412
:201817006F722E0A00323A204D6564652074656E73616F2061706C69636164612061207087
:201837006C6163612070656C746965722E0A00333A2054657374612052414D205350492EEB
:201857000A000A002530357520004572726F20656E642E20253035750A0046696D20646FE9
:201877002074657374652E2052414D20535049206F6B210A0054656D706572617475726123
:1C18970020646120706C6163612070656C746965723A2025322E316620430A0037
:20086600C014858114E51424FDF8868318868218E493A3B42577C201C202C203C204C205EE
:20088600C206790E7700C207E493A324C64017240A50157005B50E02D206D205FAE775F0A6
:2008A6000AA42AF780E2240A2430B46C04D20180D7B46804D20280D0B473030208FEB464A3
:2008C60006120BD802095AB47506120BD802097AB4630518E6188017B47803020939B466B3
:2008E60003020A8EB42E06790F7700809B6006120CCA020876020CE4C083C08286F01886FA
:200906008318868218300519C206C082C0831216A46007A3150EE50E70F4120CB5D083D035
:20092600821216A46006A3120CCA80F5D082D08302087612095120020C1209513001061289
:200946000951120951120CDC020876E6120CBAE618020CBBED30E71CD204E9F42401F920BB
:200966000212EAF43400FA30010AEBF43400FBECF43400FC200210300108EB7024EC702191
:20098600C201EA701CD202E97017200714300509E50E6005150E120CB57430120CCA020877
:2009A60076C082C083120BF2300560790A30011DEB54F0703619EB540F703019EA54F0702E
:2009C6002A19EA540F702419EF54F0701E790520020BEF540F701419EE54F0700E7903EE5F
:2009E600540F700719ED54F0700119E50EA204994019F50EC003C002C007C006C005120CC0
:200A0600B5D005D006D007D002D003300419C003C002C007C006C005742D120CCAD005D0A2
:200A260006D007D002D00320024030012CC005C006C0078A82EBF583120CBAE583120CBB95
:200A4600E582120CBAE582120CBBD0E0F582120CBAE582D083D08280058D828E83EF120C54
:200A6600BBE583120CBAE58380038D82EE120CBBE582120CBAE582120CBB120CDCD083D018
:200A8600823007012202087630050EE50ED3950FF50E5028750E008023E6547FFA18860352
:200AA60008AE82AF83901A7F7D07E4932BA3E4933A5003A3DDF48D0F8E828F83C000120BC1
:200AC600BAC082C083EFB47E02801940112482FDC3EA33FAEB33FBEC33FCDDF48006F424A4
:200AE6007F120DB875F01BE4F8FFFEFD901A13E933F9EA33FAEB33FBEC33FC5017E4932D1C
:200B0600D4FD7401933ED4FE7402933FD4FF74039338D4F8A3A3A3A3D5F0D4E47C50FBFAF3
:200B2600F9E50F232354FC8883120DB8ED29D4F513EE3AD4F512EF3BD4F511E5833CD4F5E4
:200B46001092D5D083D082D000120BBAC000C3749E9F5005D00002088EC082120DB8D08270
:200B660030D50FE92401F9E43AFAE43BFBE43CFC40E2D20712097A20050CE50F6008120BCC
:200B8600AA7003D50FF4E50F6015742E120CCA7800D20308E8120BAA120CBBE8B50FF4D01A
:200BA6000002087614C31392D52410F9E720D501C4540F22E618F9E618FC33E9339204FF36
:200BC6006003430480E618FBE618FA7900C202D20122E6F9FD18200212AA01E6F9183001C7
:200BE6000AAC02AB01E6FA18E6F91822E975F06484FE740AC5F084C445F0FD30020122EA5A
:200C0600540FF99018B3932DD4FDE94410933ED4FEEAC4540FF99018D3932DD4FDE9441053
:200C2600933ED4FEE94420933400D4FF20010122EB540FF9901903932DD4FDE94410933E4E
:200C4600D4FEE94420933FD4FFE43400FAEBC4540FF9901933932DD4FDE94410933ED4FE60
:200C6600E94420933FD4FFE94430933AD4FAEC540FF99019737B00120C88ECC4540FF99063
:200C860019C3932DD4FDE94410933ED4FEE94420933FD4FFE94430933AD4FAE94440933BDC
:200CA600D4FB2274203006027430120CCA150EE50E70F022C4540F7003300319D2032490DE
:200CC600D43440D4C083C082C000F58212024AD000D082D083222003FC7430020CCAD014C2
:010CE60022EB
:2018B3000056126824803692480460167228844000020507101215172023252830333538FD
:2018D300009692888480767268646056524844400040812263044586276809509132731472
:2018F30000000001010202020303040404050506003672084480165288246096326804404F
:20191300005510662176328742985308641975300006131926323945525865727885919893
:20193300007652280480563208846036128864400085715743281400867157432914008618
:20195300000409141924293438434853586368720001020304050607080910111213141572
:2019730000163248648096122844607692082440007244168860320577492193653810826A
:20199300007755331088664421997754321088650016335067830017345067840118345198
:2019B3000000000000000101010101010202020200561268248036924804601672288440AA
:2019D3000054096318722781369145005409631800438730741761044891357922660953C9
:2019F3000068360573421079471584522189582600020508101316182124262932343740C8
:201A1300000000500000002500005012000025060050120300255601501278002506390092
:201A33001253190056760900288804001444020007220100046100005230000026150000E6
:201A53006307000081030000910100009500000048000000240000001200000006000000DA
:1A1A73000300000001000000010000007DC5DDC334C2E0BE38BD86BBE4B90B
:200CE700120D8ABC0003020F7AEF60FA30D502B2D1E583B4FF03020F90E582B4FF03020F3A
:200D070090258340072482400B020F7A2483145003020F90F582EA8DF0A4A8F0EA8EF0A4FC
:200D270028F8E435F0F9EB8DF0A428E935F0F9E433CA8FF0A429F9EA35F0FAEBF88EF0A41B
:200D470029F9EA35F0FAE433FBEC8DF0A429F9EA35F0FAE43BFBE88FF0A42AFAEB35F0FBC3
:200D6700E433CCFD8EF0A42AFAEB35F0FBE43CFCED8FF0A42BFBEC35F0FC20E703120DFBB8
:030D8700020F59FF
:200D8A00AA82AB83A2F73392D1F5826002D2F7ACF0E58124F9F8E6FD08E6FE0886F008E6CC
:0E0DAA00A2F73392D5F5836002D2F7AFF022A4
:06006000E478FFF6D8FD74
:200DB8006040F82582500274FFF582E824F8501ECCCBCAF9E4CC24F85014CBCAF9E4CB2443
:200DD800F8500BCAF9E4CA24F8500379002224086010F8C3EC13FCEB13FBEA13FAE913F9F6
:030DF800D8F1220D
:200DFB007804EC7011E58224F8500AF582E4C9CACBFCD8EF22EC7820058220E713D58201F7
:130E1B0022C3E933F9EA33FAEB33FBEC33FCD8EA15822204
:20003E007900E94400601B7A00901A98780175A000E493F2A308B8000205A0D9F4DAF275B6
:02005E00A0FF01
:200E2E00FFA8811818120F22D2D133E6400730E70B7582012220E70675820022C2D1120FF0
:100E4E0004E97003F5822230D101B3E433F5822236
:200E5E00E516451760467A01E51625E0F516E517334012F517E5829516E583951740030AF1
:200E7E0080E6C3E51713F517E51613F516C3E5829516F5F0E58395174005F58385F082C3B2
:0D0E9E00E51713F517E51613F516DAE12236
:200066007800E84400600A790175A000E4F309D8FC7800E84400600C7900900001E4F0A398
:04008600D8FCD9FACF
:200EAB00120D8A7900E583B58202800D50031215AFE583C39582120DB8E5D0C465D020E1E6
:200ECB0017EA2DFAEB3EFBEC3FFC50097401120DB8EC4480FC020F59C3EA9DFAEB9EFBEC25
:190EEB009FFC500FC3E499F9E49AFAE49BFBE49CFCB2D1120DFB020F5946
:200F04007901AA82E68F82B5821318E6B5F00E18E6B5830918E68A82B58202790022B480E4
:200F24000FE5F0700AE5837006E58270027F00EFB6801518B6001018B6000B18B60006084C
:090F4400080876002208080822C2
:0C0F4D00E4AC83AB82FAF9748E0216C982
:200F5900B98003EA13B34010EA2401FAE43BFBE43CFC50047C800582BC000EBB000BBA00DC
:200F790008E4F5F0F583F58222A2D1E582138CF092F78B838A8222E4F583F58275F080F49C
:0F0F9900A2D11322E4F583F58275F0C0747F2294
:200FA800C01485811412024AD0142285823385833485F035E4F530F531F532851536900FF2
:200FC800A80210A3C014858114E51424FBFF8F36E4F530F531F532E51424FBF88633088635
:0D0FE80034088635900FA81210A3D01422F3
:200FF500AF82C026C027C0281210028007C024C0258F8222158115811581052EE4B52E0291
:20101500052F22AF8274302FFF24C6500A74072FFF3008034307208F82020FF5E582FFC48F
:20103500540FF582C007121018D007740F5FF582021018858216852917852A18852B19856F
:201055002C1AAA2D751B20EA2AFAE51A235401FF8A064EFAE5172517F517E51833F518E5EC
:201075001933F519E51A33F51AC3EA95164008EAC39516FA431701E51B14FF8F1B70C885F9
:20109500172985182A85192B851A2C8A2D22858224858325853026853127853228E4F52ED1
:2010B500F52FAD33AE34AF358D828E838FF01216A4FC74012DF533E43EF5348F35ECFF70B6
:2010D500030215A8BF250280030215A0C209C20AC20BC20CC20DC20EC20FC2107537007584
:2010F50038007539FFAA33AB34AE358A828B838EF01216A4FFA3AA82AB838A338B348E35B8
:20111500BF25078F82120FF58098BF3000402DEF24C6402874FFB53912E53875F00AA42F21
:20113500FC24D0F53870C4D20A80C0E53975F00AA4FC8F05ED2C24D0F53980AFBF2E0A7497
:20115500FFB539A775390080A2BF6100400CEF248540075307DFD2088002C208BF2002800B
:201175006DBF2B028063BF2D028059BF42028063BF43028068BF4403021346BF4603021307
:201195005CBF4803021100BF4903021346BF4A03021100BF4C028040BF4F0302134DBF50ED
:2011B500030212DBBF5302805ABF5403021100BF5503021352BF5803021357BF5A030211DE
:2011D50000021360D209021100D20B021100D20C021100D20E021100D20F021100300E0A87
:2011F500E53614F9893687078011E53624FEFE8E368E018705098706198D078F82120FF550
:20121500021369E53624FDFE8E368E01870409870509870619198C298D2A8E2B8C828D8383
:201235008EF01215C9AD82AE8374FFB539028D39200926C3ED95385020E538C39DF538AE0E
:20125500388E041EEC6010758220C006C005120FF5D005D00680EA8E38AE39852982852ADC
:2012750083852BF01216A4FCFF602F8E041EC374808CF063F08095F050208F82C006C00599
:20129500120FF5D005D006AA29AB2AAC2B0ABA00010B8A298B2A8C2B80C12009030213691F
:2012B500C3ED95384003021369E538C39DF538AE388E041EEC7003021367758220C00612D1
:2012D5000FF5D00680EBE53624FDFC8C368C01870209870309870419198A298B2A8C2BAC80
:2012F5002BBC800040047F438014BC600040047F50800BBC400040047F4980027F588F82AC
:20131500C007120FF575823A120FF5758230120FF5758278120FF5D007BF4902800BBF5057
:20133500028006852A821210318529821210318023D20D75370A801C753708801775370A34
:201355008012753710800DD21080098F82120FF580028E3830105CE53624FCFE8E368E019B
:2013750087020987030987040987061919198A298B2A8C2B8E2C75298D752A1A752B808565
:20139500293B852A3C852B3D7401253BFAE4353CFCAE3D8A298C2A8E2B853B82853C8385C4
:2013B5003DF01216A4FEFF70030210B78F82120FF580CCE53770030210B7753A43300E2DBE
:2013D500E53614F9893687048C027B007C007E008A298B2A8C2B8E2C200D66AA297B007C4D
:2013F500007E008A298B2A8C2B8E2C8054300F21E53624FCFE8E368E018702098703098715
:20141500040987061919198A298B2A8C2B8E2C8030E53624FEFE8E368E0187040987061981
:20143500EE3395E0FBFA8C298E2A8B2B8A2C200D10AA29AB2A7C007E008A298B2A8C2B8EA7
:201455002C300D22E52C30E71BC3E49529FAE4952AFBE4952BFCE4952CFE8A298B2A8C2B4A
:201475008E2C8002C20DD211A93A7E00752D00853782C006C001121048D001D00620110B54
:20149500E52DC4FCE7FB4CF7198002A72D0EB211E529452A452B452C70D2893A8E05E538ED
:2014B5007003753801200A24200921ED04FEAC38C3EE9C5015758220C006C005C004120F52
:2014D500F5D004D005D0061C80E68C38300D0E75822DC005120FF5D00515388023ED6020C1
:2014F500300B0E75822BC005120FF5D0051538800F300C0C758220C005120FF5D005153884
:20151500200926AE388E041EC3ED9C502F300A067B307C0080047B207C008B82C006C0056C
:20153500120FF5D005D00680DCC3ED95385008E538C39DF538800775380080028E38A93A9B
:201555008D068E051EED6026B21120110A09E7C4540FFD8D2D80078705740F5DF52D852D2C
:2015750082C006C001121018D001D00680D42009030210B7AE388E051EED70030210B775EE
:1A1595008220C006120FF5D00680EB8F82120FF50210B7852E82852F8322FF
:0B1A8D003C4E4F20464C4F41543E00A1
:1A15AF00E582C583F582A2D133A2D592D11392D5ECCFFCEBCEFBEACDFA22C4
:1815C900AA82AB831216A46003A380F8C3E5829AF582E5839BF583228E
:2015E100120D8A30D502B2D1BF0009BC0003020F9D020F90BC0003020F7AE583B4FF0BE58C
:2016010082B4FF03020F9D020F7AE582B4FF03020F90C395835007247F400B020F7A24804B
:20162100145003020F90F582C3ED9AEE9BEF9C40111582C3EA33F9EB33FAEC33FBE433FCC6
:201641008005E4CCCBCAF9C08275F019C3E99DEA9EEB9FEC9400D5F002802D400EE99DF9EA
:20166100EA9EFAEB9FFBEC9400FCC3B3E833F8E58233F582E58333F583C3E933F9EA33FA4A
:20168100EB33FBEC33FC80C4B3E4F938FAE43582FBE43583FCD082500405827C80120DFB9E
:0316A100020F71C4
:0D0031007581431216D3E582600302002E94
:1C16A40020F71430F6148883A88220F507E6A88375830022E280F7E49322E02255
:1316C000FCABF0AA83A982749EC2D1F582120DFB020F5988
:0416D30075820022FA
:00000001FF
